:100000000C948F000C94B7000C94B7000C94B700BC
:100010000C94B7000C94B7000C94B7000C94C10773
:100020000C94B7000C94B7000C94B7000C94B70074
:100030000C94B7000C94B7000C94B7000C94B70064
:100040000C9477070C94B7000C94B7000C94B7008D
:100050000C94B7000C94B7000C94B7000C94B70044
:100060000C94B7000C94B70008000000BE9224491D
:10007000123EABAAAA2ABECDCCCC4C3E00000080DA
:10008000BEABAAAAAA3E00000000BF000000803F4D
:100090000000000000084178D3BB4387D1133D190D
:1000A0000E3CC3BD4282AD2B3E68EC8276BED98F3A
:1000B000E1A93E4C80EFFFBE01C4FF7F3F0000007E
:1000C000000000000000240027002A0000000000BB
:1000D000250028002B000000000023002600290036
:1000E00004040404040404040202020202020303DE
:1000F00003030303010204081020408001020408E6
:100100001020010204081020000000080002010075
:10011000000304070000000000000000BC0A1124D6
:100120001FBECFEFD8E0DEBFCDBF11E0A0E0B1E051
:10013000EAEEF0E202C005900D92AA36B107D9F7B7
:1001400022E0AAE6B1E001C01D92AC38B207E1F7A7
:1001500010E0CFE8D0E004C02197FE010E94760EA7
:10016000CE38D107C9F70E9460080C9473100C9424
:100170000000FC01248135816217730748F48081F7
:100180009181009729F0FC01E60FF71F8081089507
:1001900080E0089508958230910538F0880F991F06
:1001A000880F991F05970197F1F708958E3008F091
:1001B0008E508770806480937C0080917A00806488
:1001C00080937A0080917A0086FDFCCF8091780040
:1001D0002091790090E0922B0895833081F028F4EB
:1001E000813099F08230A1F008958730A9F08830ED
:1001F000B9F08430D1F4809180008F7D03C080916C
:1002000080008F7780938000089584B58F7702C037
:1002100084B58F7D84BD08958091B0008F7703C031
:100220008091B0008F7D8093B0000895CF93DF93CD
:10023000282F30E0F901E85FFE4F8491F901EC507E
:10024000FF4FD491F901E052FF4FC491CC2391F0BC
:1002500081110E94ED00EC2FF0E0EE0FFF1FEA523B
:10026000FF4FA591B491EC91ED2381E090E021F452
:1002700080E002C080E090E0DF91CF9108951F936D
:10028000CF93DF93282F30E0F901E85FFE4F849190
:10029000F901EC50FF4FD491F901E052FF4FC491A6
:1002A000CC23C1F0162F81110E94ED00EC2FF0E05D
:1002B000EE0FFF1FE453FF4FA591B4919FB7F89441
:1002C000111104C08C91D095D82302C0EC91DE2B83
:1002D000DC939FBFDF91CF911F910895CF93DF9360
:1002E00090E0FC01EC50FF4F2491FC01E052FF4FE5
:1002F0008491882361F190E0880F991FFC01EE53EF
:10030000FF4FC591D491FC01E453FF4FA591B491E7
:10031000611109C09FB7F894888120958223888352
:10032000EC912E230BC0623061F49FB7F894888162
:10033000322F309583238883EC912E2B2C939FBFF3
:1003400006C08FB7F894E8812E2B28838FBFDF91EA
:10035000CF910895CF92DF92EF92FF92CF93DF93E8
:100360006B017C011092700061E083E00E946E01DD
:1003700060E083E00E943F0181E08093B00089E06B
:100380008093B10082ED8093B30086E48093B40043
:100390008091B00080628093B00088E293E20E9476
:1003A000CB008091B0008F7D8093B00084E991E113
:1003B0000E94CB00C0E2D0E08091B00080628093C8
:1003C000B00080E392E0F7FE0AC00E94CB0080916B
:1003D000B0008F7D8093B00080E496E009C00E9459
:1003E000CB008091B0008F7D8093B00080E392E0DD
:1003F0000E94CB00CC0CDD1CEE1CFF1C2197E1F60B
:100400008091B00080628093B00080E392E00E940F
:10041000CB008091B0008F7D8093B00080E090E0B1
:10042000DF91CF91FF90EF90DF90CF900C94CB00B5
:100430003FB7F8948091520290915302A0915402D8
:10044000B091550226B5A89B05C02F3F19F0019623
:10045000A11DB11D3FBFBA2FA92F982F8827820F4A
:10046000911DA11DB11DBC01CD0142E0660F771F9A
:10047000881F991F4A95D1F708959F92AF92BF9216
:10048000CF92DF92EF92FF920F931F93CF93DF9360
:10049000809166028111C4C00E94180200918402FA
:1004A000109185022091860230918702AB01BC0138
:1004B000401B510B620B730B80918202909183025F
:1004C000092E000CAA0BBB0B481759076A077B07BC
:1004D00008F448C10E941802609384027093850258
:1004E00080938602909387028091650281114DC0AE
:1004F000C0E080917802C81758F4EC2FF0E0EF5973
:10050000FD4F6091620287810E943F01CF5FF1CF72
:10051000E0917902F0E0EF59FD4F60916402878528
:100520000E943F01809179028F5F883018F4809398
:10053000790202C010927902C0917902EC2FF0E0AA
:10054000EF59FD4F6091630287850E943F0101E0F2
:1005500010E002C0000F111FCA95E2F7C0E08091C1
:100560007802C81708F0FEC0EC2FF0E0EF59FD4FFD
:10057000818D90E080239123892B29F06091610285
:1005800087810E943F01CF5FEACFC0E7D2E008E752
:1005900012E06091640289910E943F010C171D07CF
:1005A000C1F7E0917902F0E0EF59FD4F60916202EE
:1005B00087810E943F01809179028F5F8093790249
:1005C00090917802891710F010927902C091790207
:1005D000D0E0CF59DD4F609161028F810E943F01D1
:1005E00031E6E32E32E0F32E00E010E069968881D8
:1005F00090E0002E02C0959587950A94E2F780FF5F
:1006000006C060916302F70187850E943F010F5F7A
:100610001F4FFFEFEF1AFF0A0830110541F7A2C084
:1006200080916502882331F0912C28E7E22E22E0A8
:10063000F22E80C000E712E0C0E0D0E0CC24C394EA
:10064000D12C780160916302F80180810E943F0102
:1006500056010C2E02C0AA0CBB1C0A94E2F7912C86
:1006600080917802981688F4E92DF0E0EF59FD4F5B
:10067000818D90E08A219B21892B29F06091610274
:1006800087810E943F019394EBCF809182029091E9
:1006900083020E94CB00B12C80917802B81658F4E6
:1006A000EB2DF0E0EF59FD4F6091620287810E94CF
:1006B0003F01B394F1CF0F5F1F4F60916402F701C8
:1006C00080810E943F012196C830D10509F0B9CF41
:1006D00049C0F601808190E0002E02C09595879573
:1006E0000A94E2F780FF06C060916302F5018785F6
:1006F0000E943F010F5F1F4FFFEFAF1ABF0A083084
:10070000110539F780918202909183020E94CB00FB
:1007100000E712E060916402F80181918F010E946C
:100720003F01E016F106B1F7609162028F810E94ED
:100730003F019394809178029816A0F4C92DD0E0DF
:10074000CF59DD4F609161028F810E943F0181E6A8
:10075000A82E82E0B82E00E010E06E01F9E1CF0E85
:10076000D11CB7CFDF91CF911F910F91FF90EF90E8
:10077000DF90CF90BF90AF909F9008952F923F92BF
:100780004F925F926F927F928F929F92AF92BF92A1
:10079000CF92DF92EF92FF920F931F93CF93DF934D
:1007A00000D01F92CDB7DEB76B017C0149832DB716
:1007B0003EB73B832A8380907802E82DF0E05F010A
:1007C00031E0A31AB1088DB79EB78E1B9F0B0FB6F1
:1007D000F8949EBF0FBE8DBF0DB71EB70F5F1F4FA2
:1007E000EE0FFF1FEE0FFF1FDF01A85CBE4F8D91C4
:1007F0009D910D90BC91A02DC816D906EA06FB0666
:100800009CF4EC5CFE4F408151816281738181E0F8
:1008100090E0A0E0B0E0841B950BA60BB70BC816C8
:10082000D906EA06FB069CF4902FF80185E22E2FEC
:10083000291B281550F0A1E6B2E080E090E0E981A4
:10084000AE1AB108E7FDB39469C08193F0CFF7FE0B
:100850000EC085E2F8018083F094E094D094C094B7
:10086000C11CD11CE11CF11C9924939401C0912C52
:10087000981428F5692C712CF501E619F709EE0F8B
:10088000FF1FEE0FFF1FE85CFE4F2080318042808B
:100890005380C701B601A20191010E94390CF801F1
:1008A000E60DF71D2083A22FB0E0A20191010E9466
:1008B000580CC61AD70AE80AF90A9394D9CF80913E
:1008C00067028111B8CF24E2E82FF0E0998197FD0B
:1008D00090E0A501491B510997FD5395E417F507D1
:1008E0000CF0A9CFE00FF11F9081911102C020837D
:1008F00003C09A3008F49FCF8F5FE6CFF8012191B3
:100900008F01E22FF0E0EE5EFE4F208159962C938E
:100910005997F981F7FF05C001961196881570F374
:1009200008C0A816B906C1F7206859962C935997A4
:10093000F3CF2A813B810FB6F8943EBF0FBE2DBF87
:100940000F900F900F90DF91CF911F910F91FF901B
:10095000EF90DF90CF90BF90AF909F908F907F905F
:100960006F905F904F903F902F900895FC01808191
:1009700091810C94140FCF93DF93EC0188819981BE
:10098000009711F00E94140F198218821D821C8298
:100990001B821A82DF91CF9108950F931F93CF93FB
:1009A000DF938C01EB01FC0180819181009739F08C
:1009B0006881798161157105A1F40E94140F888105
:1009C0009981F801918380838A819B8193838283BB
:1009D0008C819D8195838483198218821B821A825F
:1009E0000FC0F801428153812C813D81421753078A
:1009F00020F30E946C108C819D81F8019583848383
:100A00001D821C82DF91CF911F910F910895DF927B
:100A1000EF92FF920F931F93CF93DF9360E080914B
:100A200058020E943F0161E0809156020E943F01FE
:100A300061E0809157020E946E011091580200916E
:100A40005702C0E0D0E09FEBE92EF12CB7010C2E4D
:100A500002C0759567950A94E2F76170802F0E9435
:100A60003F0161E0812F0E943F0160E0812F0E94E1
:100A70003F012196C830D10549F709E512E081E62A
:100A8000E82E82E0F82E60E0809157020E946E010D
:100A9000D12CC0E0D0E0809157020E941601992726
:100AA0000C2E01C0880F0A94EAF7D82A61E08091E1
:100AB00058020E943F0160E0809158020E943F016D
:100AC0002196C830D10539F7F801D1928F01EE1681
:100AD000FF06C9F660E0809156020E943F018091B6
:100AE0005902382F3695369536953E70932F990FCB
:100AF000990F390F8F70380F20915A02422F469567
:100B0000469546954E70942F990F990F842F890F13
:100B1000422F4F70480F90915B02892F8F7097FF83
:100B200009C095FB222720F9FCE02F9F800D11249E
:100B3000282F0AC09073969596959695292F220F87
:100B4000220F920F292F280F2A3010F480E305C0BE
:100B5000822F6AE00E946A0E805D809360015AE0F5
:100B6000822F652F0E946A0E905D909361018AE347
:100B7000809362014A3010F480E305C0842F652F12
:100B80000E946A0E805D809363012AE0842F622FA9
:100B90000E946A0E905D909364018AE380936501E0
:100BA0003A3010F480E305C0832F622F0E946A0E52
:100BB000805D80936601832F6AE00E946A0E905DDB
:100BC000909367011092680180E691E0DF91CF91E8
:100BD0001F910F91FF90EF90DF9008950F931F9357
:100BE000CF93DF93EC0188819981009729F02A81C6
:100BF0003B812617370788F48B016F5F7F4F0E9478
:100C00009D0F009761F0998388831B830A832C8151
:100C10003D81232B11F4FC01108281E001C080E0B2
:100C2000DF91CF911F910F910895EF92FF920F9353
:100C30001F93CF93DF9300D0CDB7DEB78C016983CC
:100C40001A82FC01E480F580FFEFEF1AFF0AB7017A
:100C50000E94EE05882381F0F80120813181848192
:100C60009581BE016F5F7F4F820F931F0E946C10B2
:100C7000F801F582E48203C0C8010E94BB04C801E8
:100C80000F900F90DF91CF911F910F91FF90EF90F8
:100C90000895EF92FF920F931F93CF93DF93EC0190
:100CA0007B018A01BA010E94EE05811104C0CE01C8
:100CB0000E94BB0407C01D830C83B7018881998102
:100CC0000E946C10CE01DF91CF911F910F91FF9088
:100CD000EF900895CF93DF93EC01FB018617970700
:100CE00061F0608171816115710529F04481558140
:100CF0000E94490602C00E94BB04CE01DF91CF9141
:100D00000895CF93DF9300D0CDB7DEB7FC011182F9
:100D10001082138212821582148269831A82BE01A4
:100D20006F5F7F4FFB0101900020E9F73197AF0122
:100D3000461B570B0E9449060F900F90DF91CF91F1
:100D40000895FC011182108213821282158214828E
:100D50006115710551F0FB0101900020E9F7319711
:100D6000AF01461B570B0C94490608951F93CF9370
:100D7000DF93CDB7DEB768970FB6F894DEBF0FBE2E
:100D8000CDBF0E940705BC01CE0107960E94A106B7
:100D90000E940705BC01CE010D960E94A10668E6DF
:100DA00071E0CE0143960E94A10660E070E0CE01A2
:100DB00007960E94B900682FCE0101960E94810615
:100DC000BE016F5F7F4FCE0143960E94CD04CE01DE
:100DD00001960E94B60461E070E0CE0107960E9481
:100DE000B900182F1A8219821C821B821E821D8252
:100DF000BE016D5E7F4FCE0101960E946A06612F93
:100E0000CE0101960E941506BC01CE0107960E94F4
:100E10006A06CE0101960E94B6048F8198850097DC
:100E200019F00E94DE0A03C060E070E0CB0170930D
:100E3000400260933F0263E070E0CE010D960E9495
:100E4000B900682FCE0101960E948106BE016F5F36
:100E50007F4FCE0143960E94CD04CE0101960E94A1
:100E6000B60464E070E0CE010D960E94B900182F20
:100E70001A8219821C821B821E821D82BE016D5E37
:100E80007F4FCE0101960E946A06612FCE01019626
:100E90000E941506BC01CE010D960E946A06CE0185
:100EA00001960E94B6048D859E85009719F00E94D8
:100EB000DE0A03C060E070E0CB0170933E026093F5
:100EC0003D02CE0143960E94B604CE010D960E94CB
:100ED000B604CE0107960E94B60468960FB6F89441
:100EE000DEBF0FBECDBFDF91CF911F9108951F923E
:100EF0000F920FB60F9211242F933F938F939F93CE
:100F0000AF93BF9380914E0290914F02A0915002F7
:100F1000B091510230914D0223E0230F2D3720F480
:100F20000196A11DB11D05C026E8230F0296A11D43
:100F3000B11D20934D0280934E0290934F02A093D7
:100F40005002B09351028091520290915302A091AD
:100F50005402B09155020196A11DB11D8093520219
:100F600090935302A0935402B0935502BF91AF9156
:100F70009F918F913F912F910F900FBE0F901F90D7
:100F800018951F920F920FB60F9211242F933F9333
:100F90004F935F936F937F938F939F93AF93BF9381
:100FA000EF93FF9380916A010E94160120916D01D9
:100FB00030916E012F5F3F4F30936E0120936D0192
:100FC00090913702943618F095E090936B019091D0
:100FD0006B019330B9F018F4923039F057C0943067
:100FE00059F1953009F44CC051C081114FC0209186
:100FF0006D0130916E012436310508F443C0109222
:1010000037021CC0813009F041C0E091370291E005
:101010009E0F90933702F0E020916D0130916E01A8
:10102000EE0FFF1FE659FE4F3683258310926E01A7
:1010300010926D0194E021C0811117C0E091370238
:1010400091E09E0F90933702F0E020916D01309176
:101050006E01EE0FFF1FE659FE4F36832583109277
:101060006E0110926D0193E008C020916D013091E6
:101070006E012536310550F095E090936B0106C066
:10108000811104C010926E0110926D0190916C015B
:10109000992329F0811102C02D9A01C02D98FF914A
:1010A000EF91BF91AF919F918F917F916F915F91E0
:1010B0004F913F912F910F900FBE0F901F90189559
:1010C000CF93DF93CDB7DEB72C970FB6F894DEBF82
:1010D0000FBECDBF789484B5826084BD84B5816035
:1010E00084BD85B5826085BD85B5816085BD8091F3
:1010F0006E00816080936E0010928100809181006B
:101100008260809381008091810081608093810062
:10111000809180008160809380008091B100846024
:101120008093B1008091B00081608093B000809185
:101130007A00846080937A0080917A008260809344
:101140007A0080917A00816080937A0080917A00A1
:10115000806880937A001092C100109238028091CA
:10116000060190910701A0910801B09109018987BA
:101170009A87AB87BC8788E0EAE0F1E0DE01119650
:1011800001900D928A95E1F781E0809365021092BB
:1011900066021092670294E09093780210926102C6
:1011A000809363028093620210926402FE01319682
:1011B00000E712E0CE010996D80121912D93E8179E
:1011C000F907D9F78985809368028A858093690237
:1011D0008B8580936A028C8580936B02F12C8091C1
:1011E0007802F81698F48F2D90E09C012F593D4F0E
:1011F000690161E0F90187810E946E0160916202DC
:10120000F60187810E943F01F394E9CF780161E004
:10121000F80181918F010E946E0160916402F701D3
:1012200080810E943F01F2E008371F0779F740E014
:1012300060E070E0CB010E94BE0388EE93E09093E3
:1012400083028093820262E081E10E946E0194E653
:10125000692E00E010E0772473948091450281119B
:1012600015C02FB7F89480914E0290914F02A09133
:101270005002B09151022FBF8093410290934202DD
:10128000A0934302B0934402709245028FB7F89442
:1012900040914E0250914F02609150027091510264
:1012A0008FBF8091410290914202A0914302B09180
:1012B0004402481759076A077B0720F188519C4F61
:1012C000AF4FBF4F8093410290934202A0934302DD
:1012D000B09344020E94B60680913F029091400272
:1012E000689EB001699E700D112480913D0290911D
:1012F0003E02680F791F072E000C880B990B41E006
:101300000E94BE030E943D028FB7F89440914E02A6
:1013100050914F0260915002709151028FBF8091A5
:10132000410290914202A0914302B09144024817B9
:1013300059076A077B0708F4C9C088519C4FAF4F13
:10134000BF4F8093410290934202A0934302B09317
:1013500044020E94B60680E00E94D600BC01990FAC
:10136000880B990B0E941C0B9B01AC0160E070EC98
:101370008FE794E40E94380D20E030E040E85FE31E
:101380000E94CB0C20E030E44CE156E40E947B0B41
:101390000E94ED0D6B017C012CE63FEC48E554E327
:1013A0000E947B0BA70196010E947B0BA70196016F
:1013B0000E947B0B4B015C0126ED34E649E759E3C3
:1013C000C701B6010E947B0B2BEC38E444E85AE3DA
:1013D0000E94CC0C9B01AC01C501B4010E94CC0C55
:1013E0009B01AC0160E070E080E89FE30E94380D53
:1013F00023E333E948E853E40E94CB0C1B012C01A2
:101400006093390270933A0280933B0290933C02BE
:1014100081E10E94D6008436910564F56EEE71E19B
:1014200085E59AEA0E94AA010E9418024B015C011C
:1014300084E6C82ED12CE12CF12C0E941802DC018C
:10144000CB0188199909AA09BB09883E9340A105D7
:10145000B10598F321E0C21AD108E108F10838EE8D
:10146000830E33E0931EA11CB11CC114D104E1040E
:10147000F10419F720E030E040EF51E4C201B1017E
:101480000E94E00D20913F0230914002181684F432
:10149000C9010997099760F480913802811116C03B
:1014A0006FED70E2CB010E94AA01709238020EC06B
:1014B000223131055CF080913802882339F06FEDDC
:1014C00070E2CB010E94AA01109238028FB7F89403
:1014D00040914E0250914F02609150027091510222
:1014E0008FBF8091410290914202A0914302B0913E
:1014F0004402481759076A077B07A8F188519C4F97
:10150000AF4FBF4F8093410290934202A09343029A
:10151000B093440220E030E048EC52E4609139029C
:1015200070913A0280913B0290913C020E947B0BA9
:101530006B017C0120E030E0A9010E94E00D87FFF3
:1015400005C020E030E040E05FEB04C020E030E088
:1015500040E05FE3C701B6010E94CC0C0E94AA0DD7
:1015600040E00E94BE030E943D020115110509F4EE
:1015700074CE0E94000071CECF93DF93E1E6F2E0DB
:1015800080ED97E092A381A3178A108E13A214A274
:1015900015A216A214821582C6E5D2E087E08883E0
:1015A00086E0898385E08A8361E087E00E946E019E
:1015B00061E08A81DF91CF910C946E011F93FC0151
:1015C00099278827BC01E89411911032E9F319306A
:1015D00010F01E30C8F31B3251F01D3249F46894EC
:1015E00006C00E94050B610F711D811D911D119197
:1015F00010531A30B0F33EF4909580957095619534
:101600007F4F8F4F9F4F1F910895592F482F372F8E
:10161000262F660F771F881F991F660F771F881F59
:10162000991F620F731F841F951F660F771F881FF6
:10163000991F0895E89409C097FB3EF49095809512
:10164000709561957F4F8F4F9F4F9923A9F0F92F88
:1016500096E9BB279395F695879577956795B79506
:10166000F111F8CFFAF4BB0F11F460FF1BC06F5FEC
:101670007F4F8F4F9F4F16C0882311F096E911C0FE
:10168000772321F09EE8872F762F05C0662371F01F
:1016900096E8862F70E060E02AF09A95660F771F33
:1016A000881FDAF7880F9695879597F90895990F0F
:1016B0000008550FAA0BE0E8FEEF16161706E8071C
:1016C000F907C0F012161306E407F50798F0621B3D
:1016D000730B840B950B39F40A2661F0232B242B12
:1016E000252B21F408950A2609F4A140A6958FEF31
:1016F000811D811D08950E948E0B0C94FF0B0E948A
:10170000F10B38F00E94F80B20F0952311F00C94A7
:10171000E80B0C94EE0B11240C94330C0E94100C6B
:1017200070F3959FC1F3950F50E0551F629FF00134
:10173000729FBB27F00DB11D639FAA27F00DB11D4D
:10174000AA1F649F6627B00DA11D661F829F2227D6
:10175000B00DA11D621F739FB00DA11D621F839F5D
:10176000A00D611D221F749F3327A00D611D231F33
:10177000849F600D211D822F762F6A2F11249F5781
:1017800050409AF0F1F088234AF0EE0FFF1FBB1F84
:10179000661F771F881F91505040A9F79E3F510543
:1017A00080F00C94E80B0C94330C5F3FE4F3983E0C
:1017B000D4F3869577956795B795F795E7959F5FED
:1017C000C1F7FE2B880F911D9695879597F908957F
:1017D00097F99F6780E870E060E008959FEF80ECE4
:1017E000089500240A941616170618060906089587
:1017F00000240A9412161306140605060895092EED
:101800000394000C11F4882352F0BB0F40F4BF2B5B
:1018100011F460FF04C06F5F7F4F8F4F9F4F08959B
:1018200057FD9058440F551F59F05F3F71F0479591
:10183000880F97FB991F61F09F3F79F08795089576
:10184000121613061406551FF2CF4695F1DF08C095
:10185000161617061806991FF1CF869571056105B2
:1018600008940895E894BB2766277727CB0197F95A
:101870000895052E97FB1EF400940E94500C57FD0E
:1018800007D00E949A0C07FC03D04EF40C94500C25
:1018900050954095309521953F4F4F4F5F4F08959C
:1018A00090958095709561957F4F8F4F9F4F0895CC
:1018B0000E94BC0CA59F900DB49F900DA49F800D1D
:1018C000911D112408952F923F924F925F926F9233
:1018D0007F928F929F92AF92BF92CF92DF92EF92C0
:1018E000FF920F931F93CF93DF93CDB7DEB7CA1B41
:1018F000DB0B0FB6F894DEBF0FBECDBF09942A886C
:10190000398848885F846E847D848C849B84AA8413
:10191000B984C884DF80EE80FD800C811B81AA81A0
:10192000B981CE0FD11D0FB6F894DEBF0FBECDBF6B
:10193000ED010895A1E21A2EAA1BBB1BFD010DC0EB
:10194000AA1FBB1FEE1FFF1FA217B307E407F5076F
:1019500020F0A21BB30BE40BF50B661F771F881F4B
:10196000991F1A9469F760957095809590959B01E1
:10197000AC01BD01CF010895A29FB001B39FC0018A
:10198000A39F700D811D1124911DB29F700D811DAB
:101990001124911D08955058BB27AA270E94E30CDB
:1019A0000C94FF0B0E94F10B38F00E94F80B20F012
:1019B00039F49F3F19F426F40C94EE0B0EF4E095E5
:1019C000E7FB0C94E80BE92F0E94100C58F3BA17B0
:1019D000620773078407950720F079F4A6F50C9445
:1019E000320C0EF4E0950B2EBA2FA02D0B01B9018D
:1019F00090010C01CA01A0011124FF27591B99F085
:101A0000593F50F4503E68F11A16F040A22F232F90
:101A1000342F4427585FF3CF469537952795A795E0
:101A2000F0405395C9F77EF41F16BA0B620B730B87
:101A3000840BBAF09150A1F0FF0FBB1F661F771FF8
:101A4000881FC2F70EC0BA0F621F731F841F48F4AD
:101A5000879577956795B795F7959E3F08F0B0CF36
:101A60009395880F08F09927EE0F9795879508951D
:101A70000E944C0D0C94FF0B0E94F80B58F00E9432
:101A8000F10B40F029F45F3F29F00C94E80B511161
:101A90000C94330C0C94EE0B0E94100C68F39923F9
:101AA000B1F3552391F3951B550BBB27AA2762175A
:101AB0007307840738F09F5F5F4F220F331F441F67
:101AC000AA1FA9F335D00E2E3AF0E0E832D091509B
:101AD0005040E695001CCAF72BD0FE2F29D0660F88
:101AE000771F881FBB1F261737074807AB07B0E8CB
:101AF00009F0BB0B802DBF01FF2793585F4F3AF0D1
:101B00009E3F510578F00C94E80B0C94330C5F3F2A
:101B1000E4F3983ED4F3869577956795B795F79556
:101B20009F5FC9F7880F911D9695879597F908953E
:101B3000E1E0660F771F881FBB1F621773078407DA
:101B4000BA0720F0621B730B840BBA0BEE1F88F7E9
:101B5000E09508950E94B10D6894B1110C94330C76
:101B600008950E94180C88F09F5798F0B92F992774
:101B7000B751B0F0E1F0660F771F881F991F1AF078
:101B8000BA95C9F714C0B13091F00E94320CB1E09F
:101B900008950C94320C672F782F8827B85F39F09E
:101BA000B93FCCF3869577956795B395D9F73EF411
:101BB00090958095709561957F4F8F4F9F4F0895B9
:101BC0000E94570B08F48FEF089516F00C94350E11
:101BD0000C94EE0B68940C94E80B0E94180CA8F37C
:101BE0009923C1F3AEF3DF93CF931F930F93FF922B
:101BF000C92FDD2788232AF02197660F771F881FBA
:101C0000DAF720E030E040E85FEB9FE3883920F02E
:101C1000803E38F021968F770E94CC0CE8E6F0E009
:101C200004C00E94CC0CE5E9F0E00E94430E8B0159
:101C3000BE01EC01FB2E6F5771097595771F880B5C
:101C4000990B0E941C0B28E132E741E35FE30E94FD
:101C50008E0BAF2D9801AE01FF900F911F91CF9188
:101C6000DF910E94E30C0C94FF0B9F3F31F09150E9
:101C700020F4879577956795B795880F911D969570
:101C8000879597F90895DF93CF931F930F93FF9252
:101C9000EF92DF927B018C01689406C0DA2EEF018F
:101CA0000E948E0BFE01E894A591259135914591F6
:101CB0005591A6F3EF010E94E30CFE019701A801E4
:101CC000DA9469F7DF90EF90FF900F911F91CF9119
:101CD000DF910895991B79E004C0991F961708F0C9
:101CE000961B881F7A95C9F780950895EE0FFF1F00
:101CF0000590F491E02D09940F931F93CF93DF93F8
:101D00008230910510F482E090E0E0918A02F09137
:101D10008B0220E030E0A0E0B0E0309719F1408184
:101D200051810281138148175907C8F0841795071C
:101D300069F4109731F012960C93129713961C9336
:101D400027C000938A0210938B0222C0211531050F
:101D500019F04217530718F49A01BD01EF01DF0192
:101D6000F801DBCF21153105F9F0281B390B2430A0
:101D7000310580F48A819B816115710521F0FB0199
:101D80009383828304C090938B0280938A02FE0126
:101D9000329644C0FE01E20FF31F819391932250CB
:101DA0003109398328833AC0209188023091890211
:101DB000232B41F4209102013091030130938902D9
:101DC00020938802209100013091010121153105F5
:101DD00041F42DB73EB74091040150910501241BF9
:101DE000350BE0918802F0918902E217F307A0F425
:101DF0002E1B3F0B2817390778F0AC014E5F5F4F61
:101E00002417350748F04E0F5F1F50938902409307
:101E100088028193919302C0E0E0F0E0CF01DF916E
:101E2000CF911F910F910895CF93DF93009709F4FD
:101E300081C0FC01329713821282A0918A02B09174
:101E40008B02109781F420813181820F931F2091A2
:101E50008802309189022817390751F5F0938902D9
:101E6000E093880267C0ED0120E030E0CE17DF0785
:101E700040F44A815B819E0141155105F1F0EA0170
:101E8000F5CFD383C28340815181840F951FC8173A
:101E9000D90759F488819981840F951F02969183FF
:101EA00080838A819B81938382832115310529F464
:101EB000F0938B02E0938A023DC0E901FB83EA8341
:101EC00049915991C40FD51FEC17FD0761F480812A
:101ED0009181840F951F0296E901998388838281FD
:101EE00093819B838A83E0E0F0E012968D919C9130
:101EF0001397009719F0FD01DC01F7CF8D919C91AC
:101F000011979D012E5F3F4F820F931F20918802F2
:101F1000309189022817390769F4309729F4109213
:101F20008B0210928A0202C013821282B09389023D
:101F3000A0938802DF91CF910895A0E0B0E0E3EA9A
:101F4000FFE00C94670CEC01009721F4CB010E9498
:101F50007C0EB4C0FC01E60FF71F9C012250310932
:101F6000E217F30708F4A8C0D9010D911C9111974D
:101F700006171707B0F00530110508F49BC0C8011B
:101F800004978617970708F495C002501109061B9D
:101F9000170B019311936D937C93CF010E94140F43
:101FA00089C05B01A01AB10A4C01800E911EA0915C
:101FB0008A02B0918B02612C712CE12CF12C1097CC
:101FC00009F446C08D919C911197A815B905B1F5FA
:101FD0006C0142E0C40ED11CCA14DB0478F14C0140
:101FE0008A189B08640142E0C40ED11C1296BC9072
:101FF00012971396AC91B5E0CB16D10440F0B282A3
:10200000A38391828082D9016D937C9309C00E5F76
:102010001F4F800F911FF90191838083EB2DFA2FC1
:10202000E114F10431F0D7011396FC93EE9312976B
:1020300041C0F0938B02E0938A023CC06816790697
:1020400008F43C017D0112960D90BC91A02DB7CFF4
:10205000809188029091890288169906E1F46616AB
:102060007706C8F48091000190910101009741F436
:102070008DB79EB74091040150910501841B950BCB
:10208000E817F907C8F4F0938902E0938802F90190
:10209000718360830FC0CB010E947C0E7C0100978E
:1020A00059F0A801BE010E946310CE010E94140FD6
:1020B000C70104C0CE0102C080E090E0CDB7DEB71A
:1020C000EEE00C94830CFB01DC0102C001900D9248
:1020D00041505040D8F70895FB01DC0101900D926A
:0A20E0000020E1F70895F894FFCF07
:1020EA0000008C0280000A0B0C0109100D04020882
:1020FA000F003F065B4F666D7D077F6F777C395E09
:10210A0079713D76060E763800543F7367506D78C4
:10211A003E3E00766E5B0040010000000A000000AF
:10212A0064000000E803000010270000A0860100F8
:10213A0040420F008096980000E1F50500CA9A3BDC
:0A214A0078787878787878780000CB
:00000001FF
